:020000040800F2
:10000000680600206D0100087501000877010008EE
:10001000790100087B0100087D0100080000000054
:100020000000000000000000000000007F01000848
:10003000810100080000000083010008850100081C
:100040008701000887010008870100088701000870
:100050008701000887010008870100088701000860
:100060008701000887010008870100088701000850
:100070008701000887010008870100088701000840
:100080008701000887010008870100088701000830
:100090008701000887010008870100088701000820
:1000A0008701000887010008870100088701000810
:1000B000E909000887010008870100088701000896
:1000C00087010008870100088701000887010008F0
:1000D00087010008870100088701000887010008E0
:1000E00087010008870100088701000800F002F876
:1000F00000F02CF80AA090E8000C82448344AAF196
:100100000107DA4501D100F021F8AFF2090EBAE893
:100110000F0013F0010F18BFFB1A43F0010318473B
:10012000380A0000480A00000023002400250026A9
:10013000103A28BF78C1FBD8520728BF30C148BF4A
:100140000B6070471FB51FBD10B510BD00F031F832
:100150001146FFF7F7FF00F0F1FC00F04FF803B491
:10016000FFF7F2FF03BC00F057F800000948804792
:1001700009480047FEE7FEE7FEE7FEE7FEE7FEE789
:10018000FEE7FEE7FEE7FEE704480549054A064BA1
:100190007047000091090008ED0000086800002089
:1001A000680600206802002068020020704770473F
:1001B0007047754600F02CF8AE4605006946534678
:1001C00020F00700854618B020B5FFF7DDFFBDE839
:1001D00020404FF000064FF000074FF000084FF0AE
:1001E000000BAC46ACE8C009ACE8C009ACE8C009FB
:1001F000ACE8C00921F007018D46704710B50446F0
:10020000AFF300802046BDE81040FFF7A8BF000014
:10021000004870470000002001491820ABBEFEE7EF
:100220002600020070470000B0B5044600F08CFCC8
:10023000054600BF00F088FC401BA042FAD3B0BDC9
:1002400080B582B01020012100F0A4F842F2000035
:10025000C1F20300019041F20000C4F2010001A9C3
:1002600000F002F802B080BD2DE9F041CA7802F03A
:100270000F0CD30644BF8B784CEA030C09880B069D
:1002800021D0056800234FF001084FF00F0E002623
:1002900008E000BF282A08BF47610136082E03F195
:1002A00004030FD008FA06F70F42F6D00EFA03F453
:1002B00025EA04040CFA03F5482A45EA0405E9D1C5
:1002C0000761EAE70560B1F5807F38BFBDE8F081DE
:1002D000446800234FF4807E4FF00F08002607E0AB
:1002E000282A08BF47610136082E03F1040310D005
:1002F0000EFA06F707EA0105BD42F4D108FA03F544
:10030000AC430CFA03F5482A44EA0504E8D1076136
:10031000E9E74460BDE8F0814161704701617047E1
:1003200041F20C00C4F20100016821F400510160A7
:100330007047000041F20C00C4F20100016841F472
:10034000005101607047000010B582B00820012103
:1003500000F020F841F2000040F60044C1F2030032
:10036000C4F20104019001A92046FFF77DFF204659
:100370004FF48051FFF7D2FF02B010BD002941F2C7
:100380001C01C4F202010A680CBF22EA00001043FB
:1003900008607047002941F21801C4F202010A689E
:1003A0000CBF22EA000010430860704780B514209B
:1003B00000F0DAF800F00301032908BF80BD40F027
:1003C00003011420BDE8804000F00EB970B586B07E
:1003D00006460D20002100F09BF942F2930001AC8B
:1003E000ADF804000DF117050C202146022223462A
:1003F000009500F005F9012810D101994FF0FF3266
:1004000031600021A3185B780132032A81EA0301DD
:10041000F8D19DF80820914218BF002006B070BDA9
:10042000B0B50C46054600F09FF820EA04012846C6
:10043000BDE8B04000F06CB970B582B000208DF816
:10044000040000900DF10601262000F0A9F8012813
:1004500031D11AA000F050FB9DF8060000F034FBEB
:100460009DF8070000F030FB40F65430C0F6000065
:1004700000F042FB6C462046FFF7A8FF012814D18C
:1004800019A000F039FB40F654354FF0FF36C0F6A6
:10049000000500BFA019407800F016FB202000F0F6
:1004A00009FB0136032EF5D100E00AA5284600F02D
:1004B00023FB00F01FF802B070BD00BF43617264FF
:1004C0002064657465637465642120547970653AAD
:1004D00020000000416E7469636F6C6C206572725D
:1004E0006F720D0A00000000436172642055494498
:1004F0003A20000080B584B0502003A903900DF18C
:100500000B0C0C2004220B46CDF800C000F078F84C
:1005100004B080BD80B500F021F9FFF715FF012080
:100520000F2100F0F5F82A208D2100F0F1F82B20A2
:100530003E2100F0EDF82D201E2100F0E9F82C20DE
:10054000002100F0E5F82620702100F0E1F81520E8
:10055000402100F0DDF811203D2100F0D9F8BDE880
:100560008040FFF723BF0000B0B540F60045C4F25D
:100570000105044628464FF48051FFF7CDFE802048
:1005800040EA4400C0B200F02DF8002000F050F91D
:10059000044628464FF48051FFF7C0FE2046B0BD08
:1005A000B0B586B00C4605460D20072100F0B0F826
:1005B0000DF107018DF807500DF117050C200122F0
:1005C0000B46009500F01CF801284FF0000007D101
:1005D0009DF81710102903D1BDF8070020800120D5
:1005E00006B0B0BD00F024B9B0B50C460546FFF723
:1005F000BBFF40EA04012846BDE8B04000F088B8DF
:100600002DE9F0479946164605460C280F4605D0B9
:100610000E2D07D111244FF0120806E031244FF0BF
:10062000770802E001244FF0000808F18001022061
:1006300000F06EF804208021FFF7F2FE0A208021EE
:10064000FFF7D2FF0120002100F062F83EB1013F28
:1006500017F8011F092000F05BF8013EF8D10120D6
:10066000294600F055F80C2D03D10D208021FFF70D
:10067000BBFFDDF820A04FF63007CFF6FF7700BFB5
:100680000420FFF771FF013710D206460442F7D06D
:100690000D208021FFF7C4FE0620FFF765FF10F054
:1006A0001B0F0BD000252846BDE8F0870D208021C8
:1006B000FFF7B6FE00252846BDE8F08708EA0600E9
:1006C00001210C2D21EA0005F5D10A20FFF74CFF8E
:1006D00006460C20FFF748FF10F0070040EAC6006E
:1006E000A0F1080008BFF0008AF80000002E08BF43
:1006F00001260024102E28BF102600BF0920FFF776
:1007000033FF09F804000134B442F7D3D3E7000003
:1007100070B540F60046C4F201060C460546304668
:100720004FF48051FFF7F8FD7E2000EA4500FFF707
:1007300059FF2046FFF756FF30464FF48051BDE881
:100740007040FFF7EBBD00000288002942F0400333
:1007500008BF22F0400303807047000070B586B0E8
:100760004FF480400121FFF709FE08200121FFF727
:1007700011FE43F600044AF20000C4F20004C1F680
:10078000030004F5544505AE059028463146FFF7B1
:100790006BFD44F20000C0F203400590284631464C
:1007A000FFF762FD4FF082700090002001904FF043
:1007B00000700290182003900720ADF810006946E1
:1007C000204600F011F820460121FFF7BDFF06B0DA
:1007D00070BD00000089084018BF0120704700006C
:1007E00080897047818170472DE9F04102880B882C
:1007F00002F4415C4A88B1F804E043EA0C03CC8877
:100800001A430D8942EA0E024E8922438F892A43F8
:10081000B1F80E8032433A4342EA08020280828BEA
:1008200022F400628283098A0182BDE8F08100001F
:10083000B0B543F600040546C4F200042046022188
:10084000FFF7C8FF0028F9D020462946FFF7CAFF66
:1008500020460121FFF7BEFF0028F9D02046FFF710
:10086000BFFFC0B2B0BD0000AFF3008082B041F264
:1008700004000021C4F202000191009150F8041C10
:1008800041F4803140F8041C50F8041C01F400319C
:100890000091019901310191009919B90199B1F5BE
:1008A000A06FF1D150F8041C890354BF002101212D
:1008B00000910099012936D142F20001C4F20201EF
:1008C0000A6842F010020A600A6822F007020A6011
:1008D0000A6842F002020A60016801600168016072
:1008E000016841F480610160016821F47C110160BC
:1008F000016841F4E811016050F8041C41F0807176
:1009000040F8041C50F8041C8901FBD5016821F053
:1009100003010160016841F002010160016801F01A
:100920000C010829FAD102B07047000080B500F030
:100930006FF8FFF785FC4FF4165000F08BF8C820D5
:10094000FFF772FCFFF7E6FD03A000F0D5F8BDE865
:100950008040FFF7E5BC00BF524649442052656124
:1009600064657220496E697469616C697A65640DA9
:100970000A00000080B5FFF75FFDFFF7DBFC4FF4D6
:100980007A70FFF751FCBDE88040FFF7C9BC00005A
:1009900080B541F20000C4F202000168002241F07B
:1009A000010101604168CFF6FF021140416001681A
:1009B0004FF6FF72CFF6F66211400160016821F434
:1009C00080210160416821F4FE0141604FF41F0164
:1009D0008160FFF749FF4EF60850CEF200004FF05D
:1009E0000061016080BD00001020C4F20000018899
:1009F000C90708BF7047018821F00101018040F25A
:100A00006000C2F20000016801310160704700001F
:100A100080B541F21C00C4F20200016841F00101FE
:100A200001600C20C4F200004721818340F2E731CD
:100A30000184018841F0010101804FF0804001886C
:100A400041F00101018000F071F8BDE8804000F044
:100A500065B8000041F21801C4F202010A6844F2CC
:100A600004031A430A6040F60401C4F201010A6853
:100A700022F0F0020A600A6842F0B0020A600A68D6
:100A800022F470620A600A6842F480620A604AF2E4
:100A90000021C0F24A41B1FBF0F043F60C01C4F270
:100AA000010121F8040C088842F22C02104308804E
:100AB0007047000043F60001C4F201010A881206E3
:100AC000FCD588807047000010B50446000930301E
:100AD00037219F2C88BF01EB1410FFF7EBFF04F0C8
:100AE0000F0101F13000092988BF01F13700BDE88D
:100AF0001040FFF7DFBF00000178002908BF7047F2
:100B000043F60002C4F2010213881B06FCD5C9B2E9
:100B1000918010F8011F0029F6D170474EF20010A5
:100B2000CEF200004FF08051016070474EF21C4041
:100B3000CEF200001021017070470000FFF7F6FEB2
:100B4000FFF718FFFCE7000040F26000C2F200006F
:100B5000006870470D0A0000680B000800000020C4
:080B60006806000028010008EE
:04000005080000ED02
:00000001FF
