:020000040800F2
:10000000780600208901000891010008930100088A
:100010009501000897010008990100080000000000
:100020000000000000000000000000009B0100082C
:100030009D010008000000009F010008A1010008C8
:10004000A3010008A3010008A3010008A301000800
:10005000A3010008A3010008A3010008A3010008F0
:10006000A3010008A3010008A3010008A3010008E0
:10007000A3010008A3010008A3010008A3010008D0
:10008000A3010008A3010008A3010008A3010008C0
:10009000A3010008A3010008A3010008A3010008B0
:1000A000A3010008A3010008A3010008A3010008A0
:1000B00069070008A3010008A3010008A3010008C4
:1000C000A3010008A3010008A3010008A301000880
:1000D000A3010008C1090008A3010008A30100084A
:1000E000A3010008A3010008A301000800F002F822
:1000F00000F03AF80AA090E8000C82448344AAF188
:100100000107DA4501D100F02FF8AFF2090EBAE885
:100110000F0013F0010F18BFFB1A43F0010318473B
:10012000300B0000500B0000103A24BF78C878C193
:10013000FAD8520724BF30C830C144BF04680C60ED
:10014000704700000023002400250026103A28BF35
:1001500078C1FBD8520728BF30C148BF0B60704739
:100160001FB51FBD10B510BD00F031F81146FFF7E7
:10017000F7FF00F057FD00F04FF803B4FFF7F2FF70
:1001800003BC00F057F800000948804709480047C1
:10019000FEE7FEE7FEE7FEE7FEE7FEE7FEE7FEE737
:1001A000FEE7FEE704480549054A064B7047000094
:1001B00009070008ED0000087800002078060020FC
:1001C000780200207802002070477047704775461B
:1001D00000F02CF8AE4605006946534620F00700B3
:1001E000854618B020B5FFF7DDFFBDE820404FF091
:1001F00000064FF000074FF000084FF0000B21F011
:100200000701AC46ACE8C009ACE8C009ACE8C009DD
:10021000ACE8C0098D46704710B50446AFF30080C6
:100220002046BDE81040FFF7A8BF00000048704717
:100230001800002001491820ABBEFEE7260002008E
:10024000704700000349086000BF0249096800299F
:10025000FBD17047000000202DE9F0410246002547
:100260000026002000230024002791F803C00CF092
:100270000F0591F803C00CF0100CBCF1000F03D077
:1002800091F802C04CEA050591F800C0BCF1000FDE
:1002900031D0146800202BE04FF0010C0CFA00F371
:1002A000B1F800C00CEA03069E4220D183004FF053
:1002B0000F0C0CFA03F7BC4305FA03FC4CEA0404E8
:1002C00091F803C0BCF1280F06D14FF0010C0CFAD5
:1002D00000FCC2F814C00AE091F803C0BCF1480F5A
:1002E00005D14FF0010C0CFA00FCC2F810C0401C04
:1002F0000828D1D31460B1F800C0BCF1FF0F34DD81
:10030000546800202EE000F1080C4FF0010808FAB4
:100310000CF3B1F800C00CEA03069E4221D1830021
:100320004FF00F0C0CFA03F7BC4305FA03FC4CEA40
:10033000040491F803C0BCF1280F05D100F1080CAA
:1003400008FA0CF8C2F8148091F803C0BCF1480F09
:1003500007D100F1080C4FF0010808FA0CF8C2F8B8
:100360001080401C0828CED35460BDE8F08121B134
:10037000028842F00102028004E002884FF6FE7318
:100380001A400280704700002DE9F04385B0044612
:100390000D460026B1460427DFF8CC80A6884FF62C
:1003A000C0700640684600F0D1F8DDF808802F489C
:1003B000B8FBF0F01FFA80F946EA0906A68020880B
:1003C0004FF6FE710840208000262949286888429F
:1003D0000CD828684000B8FBF0F087B2042F00DA90
:1003E00004273E4309F10100208427E0E8884BF60A
:1003F000FF71884206D1286800EB4000B8FBF0F09E
:1004000087B209E0286800EBC00101EB0010B8FBDF
:10041000F0F087B247F48047C7F30B0008B947F004
:10042000010747F4004006434FF4967009FB00F0C3
:100430004FF47A7190FBF1F0401C2084A683208851
:1004400040F00100208026884FF6F5300640A8884D
:100450006989084306432680A889298908432081A1
:1004600005B0BDE8F083000000127A0040420F00A2
:10047000A0860100F0B5002100250F24C27892B3B8
:100480001F4A126802F4E062C2F5E062110AC1F18B
:100490000405CC40427802FA05F1827822401143EB
:1004A0000901067872B20B46002A04DB1E07370EDC
:1004B000144EB75409E01E074FEA166C104E0C3666
:1004C00002F00F073F1F06F807C000BF027802F0D6
:1004D0001F0301229A4003785B119B0003F1E02384
:1004E000C3F800210AE0FFE7027802F01F030122AF
:1004F0009A40054B0678761143F82620F0BD00009F
:100500000CED00E000E400E080E100E029B1064AE3
:10051000D2690243044BDA6104E0034AD2698243A0
:10052000014BDA61704700000010024029B1064A11
:1005300092690243044B9A6104E0034A9269824340
:10054000014B9A61704700000010024030B5002155
:100550000022002400232D4D6D6805F00C0121B10F
:10056000042905D0082923D105E0294D056022E0A2
:10057000274D05601FE0254D6D6805F47012234D71
:100580006D6805F48034022505EB92421CB9214DBB
:10059000554305600BE01D4D6D6805F400351DB138
:1005A0001C4D5543056002E0194D5543056002E0BE
:1005B000174D056000BF00BF144D6D6805F0F001D8
:1005C0000909154D6B5C0568DD4045600F4D6D6890
:1005D00005F4E061090A104D6B5C4568DD408560FB
:1005E0000A4D6D6805F46051C90A0B4D6B5C456896
:1005F000DD40C560054D6D6805F44041890B074D30
:100600006B5CC568B5FBF3F5056130BD00100240B9
:1006100000127A0000093D000400002014000020B0
:1006200010B500F001F810BD0CB50020019000904D
:100630003348006840F480303149086000BF3048DA
:10064000006800F4003000900198401C0190009870
:1006500018B90198B0F5A06FF1D12948006800F4ED
:10066000003010B10120009001E0002000900098BF
:10067000012843D12348006840F010002149086058
:100680000846006820F0070008600846006840F04F
:10069000020008601A4840681949486008464068E6
:1006A00048600846406840F48060486008464068FA
:1006B00020F47C1048600846406840F4E810486028
:1006C0000846006840F08070086000BF0C48006871
:1006D00000F000700028F9D00948406820F00300BD
:1006E000074948600846406840F00200486000BF83
:1006F0000348406800F00C000828F9D10CBD000048
:10070000001002400020024010B51348006840F07D
:1007100001001149086008464068104908400E4928
:100720004860084600680E4908400B4908600846C2
:10073000006820F4802008600846406820F4FE002D
:1007400048604FF41F008860FFF76AFF4FF00060B9
:100750000449086010BD0000001002400000FFF8CE
:10076000FFFFF6FE08ED00E010B50121880700F05C
:100770004EF858B10121880700F00CF804480068D1
:1007800020B103480068401E0149086010BD000008
:1007900000000020CA430282704721B1028842F063
:1007A0000102028004E002884FF6FE731A400280C4
:1007B00070471FB501210846FFF7A8FE40F2E73059
:1007C000ADF808004720ADF804000020ADF80A009D
:1007D000ADF8060001A94FF0804000F033F8012287
:1007E0001146900700F024F81C208DF8000000202E
:1007F0008DF8010001208DF802008DF80300684695
:10080000FFF738FE01218807FFF7C7FF1FBD30B58E
:100810000246002000230024158A05EA0103958979
:1008200005EA010413B10CB1012000E0002030BD45
:100830001AB183890B43838102E083898B438381CF
:1008400070470000002202881D4B98420ED01D4BBD
:1008500098420BD0B0F1804F08D01B4B984205D086
:100860001A4B984202D01A4B984204D14FF68F731C
:100870001A404B881A43174B984207D0164B9842A0
:1008800004D04FF6FF431A40CB881A4302808B886E
:1008900083850B8803850A4B98420BD0094B9842FD
:1008A00008D00E4B984205D00D4B984202D00D4B0C
:1008B000984201D10B7A038601238382704700009E
:1008C000002C0140003401400004004000080040BA
:1008D000000C0040001000400014004000400140A7
:1008E000004401400048014010B586B00446012193
:1008F00044F20400FFF71AFE4FF40070ADF8140044
:1009000018208DF8170003208DF8160005A91C4843
:10091000FFF7A2FC4FF48060ADF8140048208DF87A
:10092000170005A91648FFF797FC01940020ADF8C1
:100930000800ADF80A00ADF80C00ADF810000C206E
:10094000ADF80E0001A90F4800F0C2F8012240F2F4
:1009500025510C4800F096F825208DF80000002065
:100960008DF801008DF8020001208DF80300684623
:10097000FFF780FD0121034800F041F806B010BDEB
:10098000000801400038014010B5044600BF802136
:10099000044800F040F80028F9D02146014800F052
:1009A00003F910BD0038014010B5044603E014F807
:1009B000010BFFF7E9FF20780028F8D110BD0000F7
:1009C00010B540F22551054800F032F820B140F250
:1009D0002551024800F004F810BD00000038014025
:1009E00010B50022002340F66A14A14200D100BFD6
:1009F0000A1201249440A3B2DC43048010BD21B14B
:100A0000828942F40052828104E082894DF6FF73AC
:100A10001A408281704702460020B1F5007F00D164
:100A200000BF13880B400BB1012000E0002070478D
:100A300070B50246002400230025002040F66A1607
:100A4000B14200D100BFC1F3421501F01F030126DE
:100A500006FA03F3012D02D19689334006E0022DF8
:100A600002D1168A334001E0968A33400C120126E7
:100A700006FA04F41688344013B10CB1012000E0EA
:100A8000002070BDF0B5034600240026002500209C
:100A900040F66A17B94200D100BF1846C1F34214AC
:100AA00001F01F06012707FA06F5012C01D10C30D1
:100AB00004E0022C01D1103000E014301AB10768B4
:100AC0002F43076002E00768AF430760F0BD0000F6
:100AD0002DE9F04786B005460E460024A24600BF29
:100AE000A1460027B08900B100BF2F462C8A4CF6E2
:100AF000FF700440F08804432C82AC894EF6F3105A
:100B00000440B08831890843718908430443AC81AB
:100B1000AC8A4FF6FF400440B0890443AC8201A880
:100B2000FFF714FD1F48874202D1DDF810A001E055
:100B3000DDF80CA0A88900F4004040B10AEBCA001F
:100B400000EB0A1031684900B0FBF1F807E00AEB4E
:100B5000CA0000EB0A1031688900B0FBF1F864208C
:100B6000B8FBF0F004012009642101FB1089A88979
:100B700000F4004040B1322000EBC900B0FBF1F0BE
:100B800000F00700044308E0322000EB0910642164
:100B9000B0FBF1F000F00F0004432C8106B0BDE87B
:100BA000F087000000380140C1F3080282807047DE
:100BB00000B585B001214805FFF7A8FC01210820F8
:100BC000FFF7B4FCC020ADF810001C208DF8130016
:100BD00003208DF8120004A90F48FFF73DFB002009
:100BE000ADF804004FF48060ADF80A000001ADF8E4
:100BF0000C000A4800904BF6FF70ADF8060000208C
:100C0000ADF8080069460648FFF7BEFB012104481D
:100C1000FFF7ADFB05B000BD000C0140A086010050
:100C200000540040FFF7C5FD4FF41650FFF75CFE7F
:100C3000FFF7BEFF06E004A0FFF7B6FE4FF47A70A0
:100C4000FFF700FBF7E7000048656C6C6F0D0A00CA
:100C5000700C0008000000201800000028010008A7
:100C6000880C0008180000206006000044010008FD
:100C70000000000000000000010203040102030460
:080C800006070809020406083A
:04000005080000ED02
:00000001FF
