:020000040800F2
:10000000F006002091010008990100089B010008FA
:100010009D0100089F010008A101000800000000E8
:10002000000000000000000000000000A301000824
:10003000A501000800000000A7010008A9010008B0
:10004000AB010008AB010008AB010008AB010008E0
:10005000AB010008AB010008AB010008AB010008D0
:10006000AB010008AB010008AB010008AB010008C0
:10007000AB010008AB010008AB010008AB010008B0
:10008000AB010008AB010008AB010008AB010008A0
:10009000AB010008AB010008AB010008AB01000890
:1000A000AB010008AB010008AB010008AB01000880
:1000B000AB010008AB010008AB010008AB01000870
:1000C000AB010008AB010008AB010008AB01000860
:1000D000AB0100085D090008AB010008AB01000896
:1000E000AB010008AB010008AB01000800F002F80A
:1000F00000F03FF80AA090E8000C82448344AAF183
:100100000107DA4501D100F034F8AFF2090EBAE880
:100110000F0013F0010F18BFFB1A43F0010318473B
:10012000300E0000500E0000103A24BF78C878C18D
:10013000FAD8520724BF30C830C144BF04680C60ED
:10014000704700000023002400250026103A28BF35
:1001500078C1FBD8520728BF30C148BF0B60704739
:10016000642900F07D80002070471FB51FBD10B5C9
:1001700010BD00F02AF91146FFF7F7FF00F078FDF7
:1001800000F048F903B4FFF7F2FF03BC00F050F9A8
:100190000948804709480047FEE7FEE7FEE7FEE71B
:1001A000FEE7FEE7FEE7FEE7FEE7FEE70448054957
:1001B000054A064B70470000F5070008ED000008EF
:1001C000F0000020F0060020F0020020F0020020E5
:1001D0000FB41CB5074B06AA7B44694600900598EE
:1001E00000F0DBF80020694600F0EAF81CBC5DF87E
:1001F00014FB0000E50100002DE9F0410E46044625
:10020000002020622046E168884730B3252805D0C9
:10021000D4E901219047206A401CF2E7E1682046BA
:1002200000278847050018D0A5F14100192802D8F9
:1002300020354FF400673246294620462760FFF7F5
:100240008FFF40B1012804D0F61D26F007060836BE
:10025000D8E7361DD6E72846DAE7206ABDE8F08100
:100260002DE9F0410646002410687529314616A58F
:1002700010D0AFF30080002802DA404213A507E057
:1002800031688A0701D512A502E0490704D511A5F6
:10029000012401E0AFF3008000210A2206F12407C7
:1002A00009E0B0FBF2FCB0FBF2F302FB1C003030C3
:1002B00078541846491C0028F3D123462A46304674
:1002C000BDE8F04100F00BB8000000002D00000078
:1002D0002B000000200000007047704770472DE998
:1002E000F0470D4699469246044600F124080168FD
:1002F000880604D5E06921F01001216000E00120AA
:10030000A84201DD471B00E00027A1697A1902EB32
:100310000900081AA0612078C00602D42046AFF375
:100320000080002608E0D4E901211AF80600904771
:10033000206A401C761C20624E45F4DB2078C00603
:100340000AD52046AFF3008006E0D4E90121302031
:100350009047206A401C2062381EA7F10107F4DC98
:1003600007E0D4E9012118F805009047206A401CF5
:100370002062281EA5F10105F3DC2046AFF30080C2
:100380002078000602D50220BDE8F0870120FBE7B7
:1003900001694A1C02610878704700B58FB0CDE949
:1003A00001310021059105497944CDE90310114639
:1003B0006846FFF721FF0FB000BD0000E5FFFFFF1B
:1003C0000A6802F8010B0A607047754600F02CF8C5
:1003D000AE4605006946534620F00700854618B032
:1003E00020B5FFF7E3FEBDE820404FF000064FF0D8
:1003F00000074FF000084FF0000B21F00701AC465A
:10040000ACE8C009ACE8C009ACE8C009ACE8C00978
:100410008D46704710B50446AFF300802046BDE816
:100420001040FFF7AFBE0000004870478C0000206E
:1004300001491820ABBEFEE726000200704710B548
:10044000044603E04FF47A7000F005F8201EA4F192
:100450000104F7D110BD10B5044600214FF08040D3
:1004600000F007FA00BF4FF0804000F0FFF9A04213
:10047000F9D310BD08B50121082000F0CDF8012105
:10048000102000F0C9F84FF48050ADF8000014209F
:100490008DF8030003208DF802006946084800F03B
:1004A00013F84FF40050ADF8000010208DF8030051
:1004B00003208DF802006946024800F005F808BDE7
:1004C000000C0140001001402DE9F04102460025DA
:1004D0000026002000230024002791F803C00CF020
:1004E0000F0591F803C00CF0100CBCF1000F03D005
:1004F00091F802C04CEA050591F800C0BCF1000F6C
:1005000031D0146800202BE04FF0010C0CFA00F3FE
:10051000B1F800C00CEA03069E4220D183004FF0E0
:100520000F0C0CFA03F7BC4305FA03FC4CEA040475
:1005300091F803C0BCF1280F06D14FF0010C0CFA62
:1005400000FCC2F814C00AE091F803C0BCF1480FE7
:1005500005D14FF0010C0CFA00FCC2F810C0401C91
:100560000828D1D31460B1F800C0BCF1FF0F34DD0E
:10057000546800202EE000F1080C4FF0010808FA42
:100580000CF3B1F800C00CEA03069E4221D18300AF
:100590004FF00F0C0CFA03F7BC4305FA03FC4CEACE
:1005A000040491F803C0BCF1280F05D100F1080C38
:1005B00008FA0CF8C2F8148091F803C0BCF1480F97
:1005C00007D100F1080C4FF0010808FA0CF8C2F846
:1005D0001080401C0828CED35460BDE8F08102464C
:1005E000002093680B400BB1012000E00020704711
:1005F000416170470161704729B1064AD2690243DF
:10060000044BDA6104E0034AD2698243014BDA61A8
:10061000704700000010024029B1064A9269024367
:10062000044B9A6104E0034A92698243014B9A6148
:10063000704700000010024030B500210022002465
:1006400000232D4D6D6805F00C0121B1042905D062
:10065000082923D105E0294D056022E0274D0560DA
:100660001FE0254D6D6805F47012234D6D6805F48B
:100670008034022505EB92421CB9214D554305609B
:100680000BE01D4D6D6805F400351DB11C4D554343
:10069000056002E0194D5543056002E0174D056005
:1006A00000BF00BF144D6D6805F0F0010909154D3C
:1006B0006B5C0568DD4045600F4D6D6805F4E061D9
:1006C000090A104D6B5C4568DD4085600A4D6D6818
:1006D00005F46051C90A0B4D6B5C4568DD40C5608F
:1006E000054D6D6805F44041890B074D6B5CC5688D
:1006F000B5FBF3F5056130BD0010024000127A0031
:1007000000093D00140000202400002010B500F076
:1007100001F810BD0CB5002001900090334800682E
:1007200040F480303149086000BF3048006800F470
:10073000003000900198401C0190009818B9019871
:10074000B0F5A06FF1D12948006800F4003010B175
:100750000120009001E0002000900098012843D182
:100760002348006840F010002149086008460068EE
:1007700020F0070008600846006840F002000860AA
:100780001A48406819494860084640684860084669
:10079000406840F4806048600846406820F47C105F
:1007A00048600846406840F4E81048600846006821
:1007B00040F08070086000BF0C48006800F00070D6
:1007C0000028F9D00948406820F003000749486034
:1007D0000846406840F00200486000BF0348406897
:1007E00000F00C000828F9D10CBD000000100240F8
:1007F0000020024010B51348006840F00100114984
:10080000086008464068104908400E49486008469C
:1008100000680E4908400B4908600846006820F44B
:10082000802008600846406820F4FE0048604FF4CD
:100830001F008860FFF76AFF4FF0006004490860FE
:1008400010BD0000001002400000FFF8FFFFF6FEA0
:1008500008ED00E021B1028842F00102028004E0CC
:1008600002884FF6FE731A40028070470146888C5A
:100870007047818470470000002202881D4B984217
:100880000ED01D4B98420BD0B0F1804F08D01B4BBF
:10089000984205D01A4B984202D01A4B984204D184
:1008A0004FF68F731A404B881A43174B984207D064
:1008B000164B984204D04FF6FF431A40CB881A4398
:1008C00002808B8883850B8803850A4B98420BD066
:1008D000094B984208D00E4B984205D00D4B9842D8
:1008E00002D00D4B984201D10B7A038601238382FB
:1008F00070470000002C014000340140000400401B
:1009000000080040000C00400010004000140040AF
:100910000040014000440140004801400EB5012163
:100920000846FFF769FE0020ADF802004FF6FF70A1
:10093000ADF804004720ADF8000069464FF0804054
:10094000FFF79AFF01218807FFF784FF0EBD10B55E
:100950000446204600F05EF910BD000010B540F2DC
:100960002551124800F09BF8F0B11048FFF7EFFF57
:100970000F490870084600780D280AD101200D495A
:10098000087000200C490D4A127888540B490870F1
:100990000AE0074800780849084A1278885407484E
:1009A0000078401C0549087010BD00000038014067
:1009B000000000200100002028000020020000208C
:1009C00021B1828942F40052828104E082894DF68D
:1009D000FF731A408281704700B585B0012144F24F
:1009E0000400FFF719FE4FF40070ADF81000182056
:1009F0008DF8130003208DF8120004A91F48FFF79B
:100A000063FD4FF48060ADF8100004208DF81300F2
:100A100004A91A48FFF758FD4FF416500090002023
:100A2000ADF80400ADF80600ADF808000820ADF8F8
:100A30000A000020ADF80C006946114800F07EF86D
:100A4000012240F225510E4800F053F825200028DD
:100A50000DDB00BF00BF00F01F02012191404209E1
:100A6000920002F1E022C2F8001100BF00BF00BFF7
:100A700001210348FFF7A4FF05B000BD00080140B5
:100A80000038014002460020B1F5007F00D100BFD0
:100A900013880B400BB1012000E00020704770B5B7
:100AA0000246002400230025002040F66A16B142C9
:100AB00000D100BFC1F3421501F01F03012606FA61
:100AC00003F3012D02D19689334006E0022D02D1B5
:100AD000168A334001E0968A33400C12012606FA4A
:100AE00004F41688344013B10CB1012000E000205A
:100AF00070BDF0B50346002400260025002040F616
:100B00006A17B94200D100BF1846C1F3421401F080
:100B10001F06012707FA06F5012C01D10C3004E06D
:100B2000022C01D1103000E014301AB107682F43B5
:100B3000076002E00768AF430760F0BD2DE9F047AA
:100B400086B005460E460024A24600BFA1460027F7
:100B5000B08900B100BF2F462C8A4CF6FF700440CC
:100B6000F08804432C82AC894EF6F3100440B08820
:100B700031890843718908430443AC81AC8A4FF63C
:100B8000FF400440B0890443AC8201A8FFF754FD44
:100B90001F48874202D1DDF810A001E0DDF80CA06B
:100BA000A88900F4004040B10AEBCA0000EB0A102B
:100BB00031684900B0FBF1F807E00AEBCA0000EB2E
:100BC0000A1031688900B0FBF1F86420B8FBF0F03E
:100BD00004012009642101FB1089A88900F4004068
:100BE00040B1322000EBC900B0FBF1F000F007008B
:100BF000044308E0322000EB09106421B0FBF1F05F
:100C000000F00F0004432C8106B0BDE8F08700001F
:100C10000038014001468888C0F308007047C1F3DE
:100C200008028280704700001CB50446224604A1D9
:100C30006846FFF7CDFA684600F004F81CBD0000D6
:100C40002564000010B504460BE021780748FFF743
:100C5000E6FF00BF80210548FFF714FF0028F9D008
:100C6000641C20780028F0D110BD0000003801403D
:100C7000FFF754FEFFF7FEFBFFF7AEFE4AE100F080
:100C800065F94FF48051A448FFF7B2FC1420FFF738
:100C9000D6FB4FF48051A048FFF7ACFC00214FF089
:100CA0008040FFF7E6FD06E04FF480519A48FFF7D9
:100CB00096FC00B105E04FF08040FFF7D7FD0A2811
:100CC000F2DB00BF4FF08040FFF7D0FD9349088072
:100CD000084600880A2801DB00BFFEE700214FF02C
:100CE0008040FFF7C6FD06E04FF480518A48FFF7C9
:100CF00076FC00B905E04FF08040FFF7B7FD2D28E6
:100D0000F2DB00BF4FF08040FFF7B0FD8349088061
:100D1000084600882D2803DA08460088052801DCEB
:100D200000BFFEE700214FF08040FFF7A2FD06E084
:100D30004FF480517848FFF752FC00B105E04FF0C6
:100D40008040FFF793FD5A28F2DB00BF4FF0804050
:100D5000FFF78CFD71490880084600885A2803DA9D
:100D600008460088462801DC00BFFEE700214FF05E
:100D70008040FFF77EFD06E04FF480516648FFF7A4
:100D80002EFC00B905E04FF08040FFF76FFD5F28B3
:100D9000F2DB00BF4FF08040FFF768FD5F4908803D
:100DA000084600885F2803DA084600884B2801DCE3
:100DB00000BFFEE700205A4908607CE00020594946
:100DC00008606FE000214FF08040FFF752FD06E021
:100DD0004FF480515048FFF702FC00B105E04FF09E
:100DE0008040FFF743FD4128F2DB00BF4FF0804019
:100DF000FFF73CFD4949088008460088412803DA8E
:100E0000084600882D2801DC00BFFEE700214FF0D6
:100E10008040FFF72EFD06E04FF480513E48FFF77B
:100E2000DEFB00B905E04FF08040FFF71FFD5028C2
:100E3000F2DB00BF4FF08040FFF718FD3749088014
:100E400008460088502803DA084600880A2801DC92
:100E500000BFFEE7344832490968405C4006000E96
:100E600031492F4A126888542C4800882D280ADD01
:100E700008462B490968405C40F001002A49284A8D
:100E80001268885409E0284825490968405C20F028
:100E900001002549224A1268885422480068401CF3
:100EA000204908601F48006808288BD31C48006848
:100EB000401C1B4908601A4800680528FFF47EAFF3
:100EC000194800781849497808441749897808442E
:100ED0001549C978084415490870134800790978FC
:100EE000884213D112A0FFF7ADFE0F498878FFF7B3
:100EF0009BFE11A0FFF7A6FE11A0FFF7A3FE0A4973
:100F00000878FFF791FE10A0FFF79CFE4FF47A706F
:100F1000FFF795FAB3E60000000C01400400002042
:100F20000C00002010000020060000200B00002014
:100F300054656D703A200000202A430A000000002A
:100F400048756D693A20000020250A0070470000AE
:100F5000700F000800000020280000002801000891
:100F6000980F000828000020C8060000440100086F
:100F70000000000000000000000000000000000071
:100F8000000000000000000001020304010203044D
:080F9000060708090204060827
:04000005080000ED02
:00000001FF
