:020000040800F2
:100000007806002091010008990100089B01000872
:100010009D0100089F010008A101000800000000E8
:10002000000000000000000000000000A301000824
:10003000A501000800000000A7010008A9010008B0
:10004000AB010008AB010008AB010008AB010008E0
:10005000AB010008AB010008AB010008AB010008D0
:10006000AB010008AB010008AB010008AB010008C0
:10007000AB010008AB010008AB010008AB010008B0
:10008000AB010008AB010008AB010008AB010008A0
:10009000AB010008AB010008AB010008AB01000890
:1000A000AB010008AB010008AB010008AB01000880
:1000B000AB010008AB010008AB010008AB01000870
:1000C000AB010008AB010008AB010008AB01000860
:1000D000AB010008AB010008AB010008AB01000850
:1000E000AB010008AB010008AB01000800F002F80A
:1000F00000F03FF80AA090E8000C82448344AAF183
:100100000107DA4501D100F034F8AFF2090EBAE880
:100110000F0013F0010F18BFFB1A43F0010318473B
:10012000F4090000140A0000103A24BF78C878C10E
:10013000FAD8520724BF30C830C144BF04680C60ED
:10014000704700000023002400250026103A28BF35
:1001500078C1FBD8520728BF30C148BF0B60704739
:10016000642900F07580002070471FB51FBD10B5D1
:1001700010BD00F033F91146FFF7F7FF00F0A2FCC5
:1001800000F051F903B4FFF7F2FF03BC00F058F997
:100190000948804709480047FEE7FEE7FEE7FEE71B
:1001A000FEE7FEE7FEE7FEE7FEE7FEE70448054957
:1001B000054A064B704700002D080008ED000008B6
:1001C00078000020780600207802002078020020C5
:1001D0000FB4044910B503AA029800F0D1F810BC7E
:1001E0005DF814FB000000202DE9F0410E460446A6
:1001F000002020622046E168884730B3252805D0DA
:10020000D4E901219047206A401CF2E7E1682046CA
:1002100000278847050018D0A5F14100192802D809
:1002200020354FF400673246294620462760FFF705
:1002300097FF40B1012804D0F61D26F007060836C6
:10024000D8E7361DD6E72846DAE7206ABDE8F08110
:100250002DE9F0410646002410687529314616A59F
:1002600010D0AFF30080002802DA404213A507E067
:1002700031688A0701D512A502E0490704D511A506
:10028000012401E0AFF3008000210A2206F12407D7
:1002900009E0B0FBF2FCB0FBF2F302FB1C003030D3
:1002A00078541846491C0028F3D123462A46304684
:1002B000BDE8F04100F00BB8000000002D00000088
:1002C0002B000000200000007047704770472DE9A8
:1002D000F0470D4699469246044600F1240801680D
:1002E000880604D5E06921F01001216000E00120BA
:1002F000A84201DD471B00E00027A1697A1902EB43
:100300000900081AA0612078C00602D42046AFF385
:100310000080002608E0D4E901211AF80600904781
:10032000206A401C761C20624E45F4DB2078C00613
:100330000AD52046AFF3008006E0D4E90121302041
:100340009047206A401C2062381EA7F10107F4DCA8
:1003500007E0D4E9012118F805009047206A401C05
:100360002062281EA5F10105F3DC2046AFF30080D2
:100370002078000602D50220BDE8F0870120FBE7C7
:10038000074B70B50D467B4400F011F80446284633
:1003900000F020F810B14FF0FF3070BD204670BD66
:1003A0002B07000001694A1C02610878704700B5FC
:1003B0008FB0CDE901310021059105497944CDE99E
:1003C000031011466846FFF70FFF0FB000BD000095
:1003D000E5FFFFFF007B00F080007047754600F0EE
:1003E0002BF8AE4605006946534620F007008546C7
:1003F00018B020B5FFF7DAFEBDE820404FF0000648
:100400004FF000074FF000084FF0000B21F00701FC
:10041000AC46ACE8C009ACE8C009ACE8C009ACE83F
:10042000C0098D46704710B50446AFF300802046E2
:10043000BDE81040FFF7A6BE004870471800002036
:1004400001491820ABBEFEE72600020070470021DC
:1004500009E0002201E0531C9AB242F6FF239A42BF
:10046000F9DB4B1C99B28142F3DB704708B50121DF
:10047000042000F0EDF80120ADF8000048208DF8D0
:1004800003006946014800F003F808BD0008014078
:100490002DE9F0410246002500260020002300241B
:1004A000002791F803C00CF00F0591F803C00CF081
:1004B000100CBCF1000F03D091F802C04CEA050506
:1004C00091F800C0BCF1000F31D0146800202BE07F
:1004D0004FF0010C0CFA00F3B1F800C00CEA03066F
:1004E0009E4220D183004FF00F0C0CFA03F7BC435F
:1004F00005FA03FC4CEA040491F803C0BCF1280F90
:1005000006D14FF0010C0CFA00FCC2F814C00AE04E
:1005100091F803C0BCF1480F05D14FF0010C0CFA63
:1005200000FCC2F810C0401C0828D1D31460B1F8F8
:1005300000C0BCF1FF0F34DD546800202EE000F154
:10054000080C4FF0010808FA0CF3B1F800C00CEAEF
:1005500003069E4221D183004FF00F0C0CFA03F7E3
:10056000BC4305FA03FC4CEA040491F803C0BCF157
:10057000280F05D100F1080C08FA0CF8C2F8148015
:1005800091F803C0BCF1480F07D100F1080C4FF0FF
:10059000010808FA0CF8C2F81080401C0828CED3D5
:1005A0005460BDE8F0810246002093680B400BB117
:1005B000012000E000207047F0B5002100250F2445
:1005C000C27892B31F4A126802F4E062C2F5E06298
:1005D000110AC1F10405CC40427802FA05F1827893
:1005E000224011430901067872B20B46002A04DB4F
:1005F0001E07370E144EB75409E01E074FEA166C5B
:10060000104E0C3602F00F073F1F06F807C000BF60
:10061000027802F01F0301229A4003785B119B00CD
:1006200003F1E023C3F800210AE0FFE7027802F0BB
:100630001F0301229A40054B0678761143F82620C5
:10064000F0BD00000CED00E000E400E080E100E01F
:1006500029B1064A92690243044B9A6104E0034AB5
:1006600092698243014B9A6170470000001002407A
:1006700030B500210022002400232D4D6D6805F0C7
:100680000C0121B1042905D0082923D105E0294D09
:10069000056022E0274D05601FE0254D6D6805F4DB
:1006A0007012234D6D6805F48034022505EB9242EB
:1006B0001CB9214D554305600BE01D4D6D6805F4D7
:1006C00000351DB11C4D5543056002E0194D5543E1
:1006D000056002E0174D056000BF00BF144D6D6856
:1006E00005F0F0010909154D6B5C0568DD404560BA
:1006F0000F4D6D6805F4E061090A104D6B5C4568AB
:10070000DD4085600A4D6D6805F46051C90A0B4DE6
:100710006B5C4568DD40C560054D6D6805F4404182
:10072000890B074D6B5CC568B5FBF3F5056130BD02
:100730000010024000127A0000093D000400002071
:100740001400002010B500F001F810BD0CB5002019
:10075000019000903348006840F4803031490860CF
:1007600000BF3048006800F4003000900198401C41
:100770000190009818B90198B0F5A06FF1D12948FF
:10078000006800F4003010B10120009001E000206A
:1007900000900098012843D12348006840F01000E1
:1007A000214908600846006820F0070008600846F4
:1007B000006840F0020008601A4840681949486023
:1007C0000846406848600846406840F480604860D9
:1007D0000846406820F47C1048600846406840F4B1
:1007E000E81048600846006840F08070086000BF6C
:1007F0000C48006800F000700028F9D009484068F3
:1008000020F00300074948600846406840F00200B5
:10081000486000BF0348406800F00C000828F9D188
:100820000CBD0000001002400020024010B513482B
:10083000006840F00100114908600846406810490E
:1008400008400E494860084600680E4908400B49B8
:1008500008600846006820F4802008600846406868
:1008600020F4FE0048604FF41F008860FFF76AFF25
:100870004FF000600449086010BD00000010024005
:100880000000FFF8FFFFF6FE08ED00E000B587B0BE
:10089000012144F20400FFF7DBFE25208DF818004B
:1008A00000208DF819008DF81A0001208DF81B002A
:1008B00006A8FFF781FE4FF40070ADF81400182071
:1008C0008DF8170003208DF8160005A92048FFF7C2
:1008D000DFFD4FF48060ADF8140004208DF81700A0
:1008E00005A91B48FFF7D4FD4FF4165001900020D6
:1008F000ADF80800ADF80A00ADF80C00ADF8100036
:100900000C20ADF80E000020ADF8080001A9114838
:1009100000F060F8012240F225510E4800F035F851
:10092000252000280DDB00BF00BF00F01F020121C1
:1009300091404209920002F1E022C2F8001100BF8A
:1009400000BF00BF0121034800F006F807B000BD5A
:10095000000801400038014021B1828942F4005270
:10096000828104E082894DF6FF731A4082817047CC
:1009700002460020B1F5007F00D100BF13880B4074
:100980000BB1012000E000207047F0B503460024C1
:1009900000260025002040F66A17B94200D100BFAA
:1009A0001846C1F3421401F01F06012707FA06F5A5
:1009B000012C01D10C3004E0022C01D1103000E0F8
:1009C00014301AB107682F43076002E00768AF438D
:1009D0000760F0BD2DE9F04786B005460E460024BD
:1009E000A24600BFA1460027B08900B100BF2F4634
:1009F0002C8A4CF6FF700440F08804432C82AC89AA
:100A00004EF6F3100440B0883189084371890843D9
:100A10000443AC81AC8A4FF6FF400440B0890443E4
:100A2000AC8201A8FFF724FE1F48874202D1DDF8FF
:100A300010A001E0DDF80CA0A88900F4004040B14E
:100A40000AEBCA0000EB0A1031684900B0FBF1F86C
:100A500007E00AEBCA0000EB0A1031688900B0FB1E
:100A6000F1F86420B8FBF0F004012009642101FBD7
:100A70001089A88900F4004040B1322000EBC90081
:100A8000B0FBF1F000F00700044308E0322000EB77
:100A900009106421B0FBF1F000F00F0004432C8139
:100AA00006B0BDE8F087000000380140C1F308023D
:100AB0008280704770B504460D46E0B200F01AF827
:100AC000204670BDFFF7D2FCFFF7E0FE0CE00121ED
:100AD0000648FFF768FD0446214605A0FFF778FBAE
:100AE0006420FFF7B4FC00BFF1E7000000080140FC
:100AF00025640A0010B5044621460548FFF7D6FFD5
:100B000000BF80210248FFF733FF0028F9D010BD55
:100B100000380140340B00080000002018000000DD
:100B2000280100084C0B0008180000206006000097
:100B3000440100080000000000000000010203045E
:0C0B40000102030406070809020406086D
:04000005080000ED02
:00000001FF
